{
  "contractName": "Dex",
  "abi": [
    {
      "inputs": [],
      "stateMutability": "nonpayable",
      "type": "constructor"
    },
    {
      "anonymous": false,
      "inputs": [
        {
          "indexed": false,
          "internalType": "uint256",
          "name": "tradeId",
          "type": "uint256"
        },
        {
          "indexed": false,
          "internalType": "uint256",
          "name": "orderId",
          "type": "uint256"
        },
        {
          "indexed": true,
          "internalType": "bytes32",
          "name": "ticker",
          "type": "bytes32"
        },
        {
          "indexed": true,
          "internalType": "address",
          "name": "trader1",
          "type": "address"
        },
        {
          "indexed": true,
          "internalType": "address",
          "name": "trader2",
          "type": "address"
        },
        {
          "indexed": false,
          "internalType": "uint256",
          "name": "amount",
          "type": "uint256"
        },
        {
          "indexed": false,
          "internalType": "uint256",
          "name": "price",
          "type": "uint256"
        },
        {
          "indexed": false,
          "internalType": "uint256",
          "name": "date",
          "type": "uint256"
        }
      ],
      "name": "NewTrade",
      "type": "event"
    },
    {
      "inputs": [],
      "name": "admin",
      "outputs": [
        {
          "internalType": "address",
          "name": "",
          "type": "address"
        }
      ],
      "stateMutability": "view",
      "type": "function",
      "constant": true
    },
    {
      "inputs": [],
      "name": "nextOrderId",
      "outputs": [
        {
          "internalType": "uint256",
          "name": "",
          "type": "uint256"
        }
      ],
      "stateMutability": "view",
      "type": "function",
      "constant": true
    },
    {
      "inputs": [],
      "name": "nextTradeId",
      "outputs": [
        {
          "internalType": "uint256",
          "name": "",
          "type": "uint256"
        }
      ],
      "stateMutability": "view",
      "type": "function",
      "constant": true
    },
    {
      "inputs": [
        {
          "internalType": "bytes32",
          "name": "",
          "type": "bytes32"
        },
        {
          "internalType": "uint256",
          "name": "",
          "type": "uint256"
        },
        {
          "internalType": "uint256",
          "name": "",
          "type": "uint256"
        }
      ],
      "name": "orderBook",
      "outputs": [
        {
          "internalType": "uint256",
          "name": "id",
          "type": "uint256"
        },
        {
          "internalType": "address",
          "name": "trader",
          "type": "address"
        },
        {
          "internalType": "enum Dex.Side",
          "name": "side",
          "type": "uint8"
        },
        {
          "internalType": "bytes32",
          "name": "ticker",
          "type": "bytes32"
        },
        {
          "internalType": "uint256",
          "name": "amount",
          "type": "uint256"
        },
        {
          "internalType": "uint256",
          "name": "filled",
          "type": "uint256"
        },
        {
          "internalType": "uint256",
          "name": "price",
          "type": "uint256"
        },
        {
          "internalType": "uint256",
          "name": "date",
          "type": "uint256"
        }
      ],
      "stateMutability": "view",
      "type": "function",
      "constant": true
    },
    {
      "inputs": [
        {
          "internalType": "uint256",
          "name": "",
          "type": "uint256"
        }
      ],
      "name": "tokenList",
      "outputs": [
        {
          "internalType": "bytes32",
          "name": "",
          "type": "bytes32"
        }
      ],
      "stateMutability": "view",
      "type": "function",
      "constant": true
    },
    {
      "inputs": [
        {
          "internalType": "bytes32",
          "name": "",
          "type": "bytes32"
        }
      ],
      "name": "tokens",
      "outputs": [
        {
          "internalType": "bytes32",
          "name": "ticker",
          "type": "bytes32"
        },
        {
          "internalType": "address",
          "name": "tokenAddress",
          "type": "address"
        }
      ],
      "stateMutability": "view",
      "type": "function",
      "constant": true
    },
    {
      "inputs": [
        {
          "internalType": "address",
          "name": "",
          "type": "address"
        },
        {
          "internalType": "bytes32",
          "name": "",
          "type": "bytes32"
        }
      ],
      "name": "traderBalances",
      "outputs": [
        {
          "internalType": "uint256",
          "name": "",
          "type": "uint256"
        }
      ],
      "stateMutability": "view",
      "type": "function",
      "constant": true
    },
    {
      "inputs": [
        {
          "internalType": "bytes32",
          "name": "ticker",
          "type": "bytes32"
        },
        {
          "internalType": "enum Dex.Side",
          "name": "side",
          "type": "uint8"
        }
      ],
      "name": "getOrders",
      "outputs": [
        {
          "components": [
            {
              "internalType": "uint256",
              "name": "id",
              "type": "uint256"
            },
            {
              "internalType": "address",
              "name": "trader",
              "type": "address"
            },
            {
              "internalType": "enum Dex.Side",
              "name": "side",
              "type": "uint8"
            },
            {
              "internalType": "bytes32",
              "name": "ticker",
              "type": "bytes32"
            },
            {
              "internalType": "uint256",
              "name": "amount",
              "type": "uint256"
            },
            {
              "internalType": "uint256",
              "name": "filled",
              "type": "uint256"
            },
            {
              "internalType": "uint256",
              "name": "price",
              "type": "uint256"
            },
            {
              "internalType": "uint256",
              "name": "date",
              "type": "uint256"
            }
          ],
          "internalType": "struct Dex.Order[]",
          "name": "",
          "type": "tuple[]"
        }
      ],
      "stateMutability": "view",
      "type": "function",
      "constant": true
    },
    {
      "inputs": [
        {
          "internalType": "bytes32",
          "name": "ticker",
          "type": "bytes32"
        },
        {
          "internalType": "address",
          "name": "tokenAddress",
          "type": "address"
        }
      ],
      "name": "addToken",
      "outputs": [],
      "stateMutability": "nonpayable",
      "type": "function"
    },
    {
      "inputs": [
        {
          "internalType": "uint256",
          "name": "amount",
          "type": "uint256"
        },
        {
          "internalType": "bytes32",
          "name": "ticker",
          "type": "bytes32"
        }
      ],
      "name": "deposit",
      "outputs": [],
      "stateMutability": "nonpayable",
      "type": "function"
    },
    {
      "inputs": [
        {
          "internalType": "uint256",
          "name": "amount",
          "type": "uint256"
        },
        {
          "internalType": "bytes32",
          "name": "ticker",
          "type": "bytes32"
        }
      ],
      "name": "withdraw",
      "outputs": [],
      "stateMutability": "nonpayable",
      "type": "function"
    },
    {
      "inputs": [
        {
          "internalType": "bytes32",
          "name": "ticker",
          "type": "bytes32"
        },
        {
          "internalType": "uint256",
          "name": "amount",
          "type": "uint256"
        },
        {
          "internalType": "uint256",
          "name": "price",
          "type": "uint256"
        },
        {
          "internalType": "enum Dex.Side",
          "name": "side",
          "type": "uint8"
        }
      ],
      "name": "createLimitOrder",
      "outputs": [],
      "stateMutability": "nonpayable",
      "type": "function"
    },
    {
      "inputs": [
        {
          "internalType": "bytes32",
          "name": "ticker",
          "type": "bytes32"
        },
        {
          "internalType": "uint256",
          "name": "amount",
          "type": "uint256"
        },
        {
          "internalType": "enum Dex.Side",
          "name": "side",
          "type": "uint8"
        }
      ],
      "name": "createMarketOrder",
      "outputs": [],
      "stateMutability": "nonpayable",
      "type": "function"
    }
  ],
  "bytecode": "0x608060405234801561001057600080fd5b5033600460006101000a81548173ffffffffffffffffffffffffffffffffffffffff021916908373ffffffffffffffffffffffffffffffffffffffff1602179055506127ec806100616000396000f3fe608060405234801561001057600080fd5b50600436106100cf5760003560e01c8063904194a31161008c578063a8d2021a11610066578063a8d2021a14610240578063c9630cb01461025c578063d9c0c95014610278578063f851a44014610294576100cf565b8063904194a3146101c35780639776aacf146101f45780639ead722214610210576100cf565b80630bb431b6146100d45780632a58b3301461010b57806346e9658b1461012957806372ce957e146101595780637f2c624614610189578063813ad083146101a5575b600080fd5b6100ee60048036036100e99190810190611efc565b6102b2565b604051610102989796959493929190612575565b60405180910390f35b61011361034e565b604051610120919061255a565b60405180910390f35b610143600480360361013e9190810190611e71565b610354565b6040516101509190612414565b60405180910390f35b610173600480360361016e9190810190611da7565b6104a3565b604051610180919061255a565b60405180910390f35b6101a3600480360361019e9190810190611ead565b6104c8565b005b6101ad610e83565b6040516101ba919061255a565b60405180910390f35b6101dd60048036036101d89190810190611e0c565b610e89565b6040516101eb929190612451565b60405180910390f35b61020e60048036036102099190810190611e35565b610ecd565b005b61022a60048036036102259190810190611fae565b61101b565b6040516102379190612436565b60405180910390f35b61025a60048036036102559190810190611fd7565b61103c565b005b61027660048036036102719190810190611fd7565b61129b565b005b610292600480360361028d9190810190611f4b565b611469565b005b61029c611c3f565b6040516102a99190612399565b60405180910390f35b600360205282600052604060002060205281600052604060002081815481106102d757fe5b906000526020600020906007020160009250925050508060000154908060010160009054906101000a900473ffffffffffffffffffffffffffffffffffffffff16908060010160149054906101000a900460ff16908060020154908060030154908060040154908060050154908060060154905088565b60055481565b606060036000848152602001908152602001600020600083600181111561037757fe5b8152602001908152602001600020805480602002602001604051908101604052809291908181526020016000905b82821015610497578382906000526020600020906007020160405180610100016040529081600082015481526020016001820160009054906101000a900473ffffffffffffffffffffffffffffffffffffffff1673ffffffffffffffffffffffffffffffffffffffff1673ffffffffffffffffffffffffffffffffffffffff1681526020016001820160149054906101000a900460ff16600181111561044757fe5b600181111561045257fe5b815260200160028201548152602001600382015481526020016004820154815260200160058201548152602001600682015481525050815260200190600101906103a5565b50505050905092915050565b6002602052816000526040600020602052806000526040600020600091509150505481565b82600073ffffffffffffffffffffffffffffffffffffffff1660008083815260200190815260200160002060010160009054906101000a900473ffffffffffffffffffffffffffffffffffffffff1673ffffffffffffffffffffffffffffffffffffffff16141561056e576040517f08c379a00000000000000000000000000000000000000000000000000000000081526004016105659061247a565b60405180910390fd5b837f44414900000000000000000000000000000000000000000000000000000000008114156105d2576040517f08c379a00000000000000000000000000000000000000000000000000000000081526004016105c99061253a565b60405180910390fd5b6001808111156105de57fe5b8360018111156105ea57fe5b14156106845783600260003373ffffffffffffffffffffffffffffffffffffffff1673ffffffffffffffffffffffffffffffffffffffff1681526020019081526020016000206000878152602001908152602001600020541015610683576040517f08c379a000000000000000000000000000000000000000000000000000000000815260040161067a9061251a565b60405180910390fd5b5b60006003600087815260200190815260200160002060008060018111156106a757fe5b8660018111156106b357fe5b146106bf5760006106c2565b60015b60018111156106cd57fe5b815260200190815260200160002090506000808690505b8280549050821080156106f75750600081115b15610e7957600083838154811061070a57fe5b90600052602060002090600702016004015484848154811061072857fe5b906000526020600020906007020160030154039050600081831161074c578261074e565b815b905080830392508085858154811061076257fe5b9060005260206000209060070201600401600082825401925050819055503373ffffffffffffffffffffffffffffffffffffffff168585815481106107a357fe5b906000526020600020906007020160010160009054906101000a900473ffffffffffffffffffffffffffffffffffffffff1673ffffffffffffffffffffffffffffffffffffffff168b7fdb0c486e680ba8026643e6a85f8d157b5e7bcd4b32b54d564542570a9eb2041660065489898154811061081c57fe5b906000526020600020906007020160000154868b8b8154811061083b57fe5b9060005260206000209060070201600501544260405161085f9594939291906125f3565b60405180910390a460018081111561087357fe5b88600181111561087f57fe5b1415610af65780600260003373ffffffffffffffffffffffffffffffffffffffff1673ffffffffffffffffffffffffffffffffffffffff16815260200190815260200160002060008c8152602001908152602001600020600082825403925050819055508484815481106108ef57fe5b9060005260206000209060070201600501548102600260003373ffffffffffffffffffffffffffffffffffffffff1673ffffffffffffffffffffffffffffffffffffffff16815260200190815260200160002060007f4441490000000000000000000000000000000000000000000000000000000000815260200190815260200160002060008282540192505081905550806002600087878154811061099157fe5b906000526020600020906007020160010160009054906101000a900473ffffffffffffffffffffffffffffffffffffffff1673ffffffffffffffffffffffffffffffffffffffff1673ffffffffffffffffffffffffffffffffffffffff16815260200190815260200160002060008c815260200190815260200160002060008282540192505081905550848481548110610a2757fe5b906000526020600020906007020160050154810260026000878781548110610a4b57fe5b906000526020600020906007020160010160009054906101000a900473ffffffffffffffffffffffffffffffffffffffff1673ffffffffffffffffffffffffffffffffffffffff1673ffffffffffffffffffffffffffffffffffffffff16815260200190815260200160002060007f44414900000000000000000000000000000000000000000000000000000000008152602001908152602001600020600082825403925050819055505b60006001811115610b0357fe5b886001811115610b0f57fe5b1415610e5857848481548110610b2157fe5b9060005260206000209060070201600501548102600260003373ffffffffffffffffffffffffffffffffffffffff1673ffffffffffffffffffffffffffffffffffffffff16815260200190815260200160002060007f44414900000000000000000000000000000000000000000000000000000000008152602001908152602001600020541015610be7576040517f08c379a0000000000000000000000000000000000000000000000000000000008152600401610bde906124ba565b60405180910390fd5b80600260003373ffffffffffffffffffffffffffffffffffffffff1673ffffffffffffffffffffffffffffffffffffffff16815260200190815260200160002060008c815260200190815260200160002060008282540192505081905550848481548110610c5157fe5b9060005260206000209060070201600501548102600260003373ffffffffffffffffffffffffffffffffffffffff1673ffffffffffffffffffffffffffffffffffffffff16815260200190815260200160002060007f44414900000000000000000000000000000000000000000000000000000000008152602001908152602001600020600082825403925050819055508060026000878781548110610cf357fe5b906000526020600020906007020160010160009054906101000a900473ffffffffffffffffffffffffffffffffffffffff1673ffffffffffffffffffffffffffffffffffffffff1673ffffffffffffffffffffffffffffffffffffffff16815260200190815260200160002060008c815260200190815260200160002060008282540392505081905550848481548110610d8957fe5b906000526020600020906007020160050154810260026000878781548110610dad57fe5b906000526020600020906007020160010160009054906101000a900473ffffffffffffffffffffffffffffffffffffffff1673ffffffffffffffffffffffffffffffffffffffff1673ffffffffffffffffffffffffffffffffffffffff16815260200190815260200160002060007f44414900000000000000000000000000000000000000000000000000000000008152602001908152602001600020600082825401925050819055505b600660008154809291906001019190505550838060010194505050506106e4565b5050505050505050565b60065481565b60006020528060005260406000206000915090508060000154908060010160009054906101000a900473ffffffffffffffffffffffffffffffffffffffff16905082565b600460009054906101000a900473ffffffffffffffffffffffffffffffffffffffff1673ffffffffffffffffffffffffffffffffffffffff163373ffffffffffffffffffffffffffffffffffffffff1614610f5d576040517f08c379a0000000000000000000000000000000000000000000000000000000008152600401610f549061249a565b60405180910390fd5b60405180604001604052808381526020018273ffffffffffffffffffffffffffffffffffffffff168152506000808481526020019081526020016000206000820151816000015560208201518160010160006101000a81548173ffffffffffffffffffffffffffffffffffffffff021916908373ffffffffffffffffffffffffffffffffffffffff16021790555090505060018290806001815401808255809150506001900390600052602060002001600090919091909150555050565b6001818154811061102857fe5b906000526020600020016000915090505481565b80600073ffffffffffffffffffffffffffffffffffffffff1660008083815260200190815260200160002060010160009054906101000a900473ffffffffffffffffffffffffffffffffffffffff1673ffffffffffffffffffffffffffffffffffffffff1614156110e2576040517f08c379a00000000000000000000000000000000000000000000000000000000081526004016110d99061247a565b60405180910390fd5b82600260003373ffffffffffffffffffffffffffffffffffffffff1673ffffffffffffffffffffffffffffffffffffffff1681526020019081526020016000206000848152602001908152602001600020541015611175576040517f08c379a000000000000000000000000000000000000000000000000000000000815260040161116c906124da565b60405180910390fd5b82600260003373ffffffffffffffffffffffffffffffffffffffff1673ffffffffffffffffffffffffffffffffffffffff16815260200190815260200160002060008481526020019081526020016000206000828254039250508190555060008083815260200190815260200160002060010160009054906101000a900473ffffffffffffffffffffffffffffffffffffffff1673ffffffffffffffffffffffffffffffffffffffff1663a9059cbb33856040518363ffffffff1660e01b81526004016112439291906123eb565b602060405180830381600087803b15801561125d57600080fd5b505af1158015611271573d6000803e3d6000fd5b505050506040513d601f19601f820116820180604052506112959190810190611de3565b50505050565b80600073ffffffffffffffffffffffffffffffffffffffff1660008083815260200190815260200160002060010160009054906101000a900473ffffffffffffffffffffffffffffffffffffffff1673ffffffffffffffffffffffffffffffffffffffff161415611341576040517f08c379a00000000000000000000000000000000000000000000000000000000081526004016113389061247a565b60405180910390fd5b60008083815260200190815260200160002060010160009054906101000a900473ffffffffffffffffffffffffffffffffffffffff1673ffffffffffffffffffffffffffffffffffffffff166323b872dd3330866040518463ffffffff1660e01b81526004016113b3939291906123b4565b602060405180830381600087803b1580156113cd57600080fd5b505af11580156113e1573d6000803e3d6000fd5b505050506040513d601f19601f820116820180604052506114059190810190611de3565b5082600260003373ffffffffffffffffffffffffffffffffffffffff1673ffffffffffffffffffffffffffffffffffffffff168152602001908152602001600020600084815260200190815260200160002060008282540192505081905550505050565b83600073ffffffffffffffffffffffffffffffffffffffff1660008083815260200190815260200160002060010160009054906101000a900473ffffffffffffffffffffffffffffffffffffffff1673ffffffffffffffffffffffffffffffffffffffff16141561150f576040517f08c379a00000000000000000000000000000000000000000000000000000000081526004016115069061247a565b60405180910390fd5b847f4441490000000000000000000000000000000000000000000000000000000000811415611573576040517f08c379a000000000000000000000000000000000000000000000000000000000815260040161156a9061253a565b60405180910390fd5b60018081111561157f57fe5b83600181111561158b57fe5b14156116295784600260003373ffffffffffffffffffffffffffffffffffffffff1673ffffffffffffffffffffffffffffffffffffffff1681526020019081526020016000206000888152602001908152602001600020541015611624576040517f08c379a000000000000000000000000000000000000000000000000000000000815260040161161b9061251a565b60405180910390fd5b6116ef565b61163c8486611c6590919063ffffffff16565b600260003373ffffffffffffffffffffffffffffffffffffffff1673ffffffffffffffffffffffffffffffffffffffff16815260200190815260200160002060007f444149000000000000000000000000000000000000000000000000000000000081526020019081526020016000205410156116ee576040517f08c379a00000000000000000000000000000000000000000000000000000000081526004016116e5906124ba565b60405180910390fd5b5b600060036000888152602001908152602001600020600085600181111561171257fe5b815260200190815260200160002090508060405180610100016040528060055481526020013373ffffffffffffffffffffffffffffffffffffffff16815260200186600181111561175f57fe5b8152602001898152602001888152602001600081526020018781526020014281525090806001815401808255809150506001900390600052602060002090600702016000909190919091506000820151816000015560208201518160010160006101000a81548173ffffffffffffffffffffffffffffffffffffffff021916908373ffffffffffffffffffffffffffffffffffffffff16021790555060408201518160010160146101000a81548160ff0219169083600181111561181f57fe5b0217905550606082015181600201556080820151816003015560a0820151816004015560c0820151816005015560e0820151816006015550506000600182805490500390505b6000811115611c23576000600181111561187b57fe5b85600181111561188757fe5b1480156118d0575081818154811061189b57fe5b9060005260206000209060070201600501548260018303815481106118bc57fe5b906000526020600020906007020160050154115b156118da57611c23565b6001808111156118e657fe5b8560018111156118f257fe5b14801561193b575081818154811061190657fe5b90600052602060002090600702016005015482600183038154811061192757fe5b906000526020600020906007020160050154105b1561194557611c23565b61194d611cd5565b82600183038154811061195c57fe5b906000526020600020906007020160405180610100016040529081600082015481526020016001820160009054906101000a900473ffffffffffffffffffffffffffffffffffffffff1673ffffffffffffffffffffffffffffffffffffffff1673ffffffffffffffffffffffffffffffffffffffff1681526020016001820160149054906101000a900460ff1660018111156119f457fe5b60018111156119ff57fe5b8152602001600282015481526020016003820154815260200160048201548152602001600582015481526020016006820154815250509050828281548110611a4357fe5b9060005260206000209060070201836001840381548110611a6057fe5b9060005260206000209060070201600082015481600001556001820160009054906101000a900473ffffffffffffffffffffffffffffffffffffffff168160010160006101000a81548173ffffffffffffffffffffffffffffffffffffffff021916908373ffffffffffffffffffffffffffffffffffffffff1602179055506001820160149054906101000a900460ff168160010160146101000a81548160ff02191690836001811115611b1057fe5b0217905550600282015481600201556003820154816003015560048201548160040155600582015481600501556006820154816006015590505080838381548110611b5757fe5b90600052602060002090600702016000820151816000015560208201518160010160006101000a81548173ffffffffffffffffffffffffffffffffffffffff021916908373ffffffffffffffffffffffffffffffffffffffff16021790555060408201518160010160146101000a81548160ff02191690836001811115611bda57fe5b0217905550606082015181600201556080820151816003015560a0820151816004015560c0820151816005015560e0820151816006015590505081806001900392505050611865565b6005600081548092919060010191905055505050505050505050565b600460009054906101000a900473ffffffffffffffffffffffffffffffffffffffff1681565b600080831415611c785760009050611ccf565b6000828402905082848281611c8957fe5b0414611cca576040517f08c379a0000000000000000000000000000000000000000000000000000000008152600401611cc1906124fa565b60405180910390fd5b809150505b92915050565b60405180610100016040528060008152602001600073ffffffffffffffffffffffffffffffffffffffff16815260200160006001811115611d1257fe5b815260200160008019168152602001600081526020016000815260200160008152602001600081525090565b600081359050611d4d8161274a565b92915050565b600081519050611d6281612761565b92915050565b600081359050611d7781612778565b92915050565b600081359050611d8c8161278f565b92915050565b600081359050611da18161279f565b92915050565b60008060408385031215611dba57600080fd5b6000611dc885828601611d3e565b9250506020611dd985828601611d68565b9150509250929050565b600060208284031215611df557600080fd5b6000611e0384828501611d53565b91505092915050565b600060208284031215611e1e57600080fd5b6000611e2c84828501611d68565b91505092915050565b60008060408385031215611e4857600080fd5b6000611e5685828601611d68565b9250506020611e6785828601611d3e565b9150509250929050565b60008060408385031215611e8457600080fd5b6000611e9285828601611d68565b9250506020611ea385828601611d7d565b9150509250929050565b600080600060608486031215611ec257600080fd5b6000611ed086828701611d68565b9350506020611ee186828701611d92565b9250506040611ef286828701611d7d565b9150509250925092565b600080600060608486031215611f1157600080fd5b6000611f1f86828701611d68565b9350506020611f3086828701611d92565b9250506040611f4186828701611d92565b9150509250925092565b60008060008060808587031215611f6157600080fd5b6000611f6f87828801611d68565b9450506020611f8087828801611d92565b9350506040611f9187828801611d92565b9250506060611fa287828801611d7d565b91505092959194509250565b600060208284031215611fc057600080fd5b6000611fce84828501611d92565b91505092915050565b60008060408385031215611fea57600080fd5b6000611ff885828601611d92565b925050602061200985828601611d68565b9150509250929050565b600061201f83836122d9565b6101008301905092915050565b612035816126f5565b82525050565b61204481612690565b82525050565b61205381612690565b82525050565b600061206482612656565b61206e818561266e565b935061207983612646565b8060005b838110156120aa5781516120918882612013565b975061209c83612661565b92505060018101905061207d565b5085935050505092915050565b6120c0816126ae565b82525050565b6120cf816126ae565b82525050565b6120de81612707565b82525050565b6120ed81612707565b82525050565b6000612100601a8361267f565b91507f5468697320746f6b656e20646f6573206e6f742065786973742e0000000000006000830152602082019050919050565b6000612140600b8361267f565b91507f6f6e6c792061646d696e2e0000000000000000000000000000000000000000006000830152602082019050919050565b600061218060178361267f565b91507f4441492062616c616e636520697320746f6f206c6f772e0000000000000000006000830152602082019050919050565b60006121c060108361267f565b91507f42616c616e636520746f6f206c6f772e000000000000000000000000000000006000830152602082019050919050565b600061220060218361267f565b91507f536166654d6174683a206d756c7469706c69636174696f6e206f766572666c6f60008301527f77000000000000000000000000000000000000000000000000000000000000006020830152604082019050919050565b600061226660198361267f565b91507f546f6b656e2062616c616e636520697320746f6f206c6f772e000000000000006000830152602082019050919050565b60006122a660108361267f565b91507f43616e6e6f7420747261646520444149000000000000000000000000000000006000830152602082019050919050565b610100820160008201516122f0600085018261237b565b506020820151612303602085018261203b565b50604082015161231660408501826120d5565b50606082015161232960608501826120b7565b50608082015161233c608085018261237b565b5060a082015161234f60a085018261237b565b5060c082015161236260c085018261237b565b5060e082015161237560e085018261237b565b50505050565b612384816126eb565b82525050565b612393816126eb565b82525050565b60006020820190506123ae600083018461204a565b92915050565b60006060820190506123c9600083018661202c565b6123d6602083018561204a565b6123e3604083018461238a565b949350505050565b6000604082019050612400600083018561202c565b61240d602083018461238a565b9392505050565b6000602082019050818103600083015261242e8184612059565b905092915050565b600060208201905061244b60008301846120c6565b92915050565b600060408201905061246660008301856120c6565b612473602083018461204a565b9392505050565b60006020820190508181036000830152612493816120f3565b9050919050565b600060208201905081810360008301526124b381612133565b9050919050565b600060208201905081810360008301526124d381612173565b9050919050565b600060208201905081810360008301526124f3816121b3565b9050919050565b60006020820190508181036000830152612513816121f3565b9050919050565b6000602082019050818103600083015261253381612259565b9050919050565b6000602082019050818103600083015261255381612299565b9050919050565b600060208201905061256f600083018461238a565b92915050565b60006101008201905061258b600083018b61238a565b612598602083018a61204a565b6125a560408301896120e4565b6125b260608301886120c6565b6125bf608083018761238a565b6125cc60a083018661238a565b6125d960c083018561238a565b6125e660e083018461238a565b9998505050505050505050565b600060a082019050612608600083018861238a565b612615602083018761238a565b612622604083018661238a565b61262f606083018561238a565b61263c608083018461238a565b9695505050505050565b6000819050602082019050919050565b600081519050919050565b6000602082019050919050565b600082825260208201905092915050565b600082825260208201905092915050565b600061269b826126cb565b9050919050565b60008115159050919050565b6000819050919050565b60008190506126c68261273d565b919050565b600073ffffffffffffffffffffffffffffffffffffffff82169050919050565b6000819050919050565b600061270082612719565b9050919050565b6000612712826126b8565b9050919050565b60006127248261272b565b9050919050565b6000612736826126cb565b9050919050565b6002811061274757fe5b50565b61275381612690565b811461275e57600080fd5b50565b61276a816126a2565b811461277557600080fd5b50565b612781816126ae565b811461278c57600080fd5b50565b6002811061279c57600080fd5b50565b6127a8816126eb565b81146127b357600080fd5b5056fea2646970667358221220b929e4563f53452b51ff0fbfc2c41cdb9d022ea5b0733449a6feb5c8a229239a64736f6c63430006030033",
  "source": "pragma solidity ^0.6.3;\npragma experimental ABIEncoderV2;\n\nimport '@openzeppelin/contracts/token/ERC20/IERC20.sol';\nimport '@openzeppelin/contracts/math/SafeMath.sol';\n\ncontract Dex {\n\n  using SafeMath for uint;\n\n  enum Side { BUY, SELL }\n\n  struct Token {\n    // bytes32 at most 32 characters long and bytes32 is easier to manipulate than strings\n    bytes32 ticker;\n    address tokenAddress;\n  }\n\n  struct Order {\n    uint id;\n    address trader;\n    Side side;\n    bytes32 ticker;\n    uint amount;\n    uint filled;\n    uint price;\n    uint date;\n  }\n\n  mapping(bytes32 => Token) public tokens;\n  bytes32[] public tokenList;\n  mapping(address => mapping(bytes32 => uint)) public traderBalances;\n  // for orderBook, uint will represent the enum SIDE: 0 = BUY or 1 = SELL\n  mapping(bytes32 => mapping(uint => Order[])) public orderBook;\n  address public admin;\n  // variable to keep track of what is the current order id\n  uint public nextOrderId;\n  uint public nextTradeId;\n  bytes32 constant DAI = bytes32('DAI');\n\n  event NewTrade(\n    uint tradeId,\n    uint orderId,\n    // indexed: filter the events on the front end\n    bytes32 indexed ticker,\n    address indexed trader1,\n    address indexed trader2,\n    uint amount,\n    uint price,\n    uint date\n  );\n\n  constructor() public {\n    admin = msg.sender;\n  }\n\n  function getOrders(\n    bytes32 ticker,\n    Side side)\n    external\n    view\n    returns(Order[] memory) {\n      return orderBook[ticker][uint(side)];\n    }\n\n  function addToken(\n    bytes32 ticker,\n    address tokenAddress)\n    onlyAdmin()\n    external {\n    tokens[ticker] = Token(ticker, tokenAddress);\n    tokenList.push(ticker);\n  }\n\n  function deposit(\n    uint amount,\n    bytes32 ticker)\n    tokenExists(ticker)\n    external {\n    IERC20(tokens[ticker].tokenAddress).transferFrom(\n      msg.sender, // sends from sender\n      address(this), // sends to this smart contract\n      amount // amount to be sent\n    );\n    traderBalances[msg.sender][ticker] += amount;\n  }\n\n  function withdraw(\n    uint amount,\n    bytes32 ticker)\n    tokenExists(ticker)\n    external {\n    require(\n      traderBalances[msg.sender][ticker] >= amount,\n      'Balance too low.'\n    );\n    traderBalances[msg.sender][ticker] -= amount;\n    IERC20(tokens[ticker].tokenAddress).transfer(\n      msg.sender, // recipient is the sender of this transaction\n      amount // amount to be withdrawn\n    );\n  }\n\n  function createLimitOrder(\n    bytes32 ticker,\n    uint amount,\n    uint price,\n    Side side)\n    tokenExists(ticker)\n    tokenIsNotDai(ticker)\n    external {\n    if(side == Side.SELL) {\n      require(\n        traderBalances[msg.sender][ticker] >= amount,\n        'Token balance is too low.'\n      );\n    } else {\n      require(\n        // mul = amount multiplied by price\n        traderBalances[msg.sender][DAI] >= amount.mul(price),\n        'DAI balance is too low.'\n      );\n    }\n    Order[] storage orders = orderBook[ticker][uint(side)]; // cast side enum into an integer\n    orders.push(Order(\n      nextOrderId,\n      msg.sender,\n      side,\n      ticker,\n      amount,\n      0,\n      price,\n      now\n    ));\n\n    uint i = orders.length - 1;\n    while(i > 0) {\n      if(side == Side.BUY && orders[i - 1].price > orders[i].price) {\n        break;\n      }\n      if(side == Side.SELL && orders[i - 1].price < orders[i].price) {\n        break;\n      }\n\n      // save previous order element in in memory\n      Order memory order = orders[i - 1];\n\n      // orders[i] == current element\n      // order == previous element\n\n      // swap current order element to previous index\n      orders[i - 1] = orders[i];\n\n      // swap previous order element to next index\n      orders[i] = order;\n\n      // decrement i\n      i--;\n    }\n    // increment nextOrderId\n    nextOrderId++;\n  }\n\n  function createMarketOrder(\n    bytes32 ticker,\n    uint amount,\n    Side side)\n    tokenExists(ticker)\n    tokenIsNotDai(ticker)\n    external {\n    if(side == Side.SELL) {\n      require(\n        traderBalances[msg.sender][ticker] >= amount,\n        'Token balance is too low.'\n      );\n    }\n    // if side == Side.BUY then we want the SELL orders otherwhise we want the BUY orders\n    // cast into integer so that we can access the correct key in the order book as an integer\n    Order[] storage orders = orderBook[ticker][uint (side == Side.BUY ? Side.SELL : Side.BUY)];\n    uint i;\n    uint remaining = amount;\n\n    while(i < orders.length && remaining > 0) {\n      uint available = orders[i].amount - orders[i].filled;\n      uint matched = (remaining > available) ? available : remaining;\n      remaining -= matched;\n      orders[i].filled += matched;\n      emit NewTrade(\n        nextTradeId,\n        orders[i].id,\n        ticker,\n        orders[i].trader,\n        msg.sender,\n        matched,\n        orders[i].price,\n        now\n      );\n      if(side == Side.SELL) {\n        traderBalances[msg.sender][ticker] -= matched;\n        traderBalances[msg.sender][DAI] += matched * orders[i].price;\n        traderBalances[orders[i].trader][ticker] += matched;\n        traderBalances[orders[i].trader][DAI] -= matched * orders[i].price;\n      }\n      if(side == Side.BUY) {\n        require(\n          traderBalances[msg.sender][DAI] >= matched * orders[i].price,\n          'DAI balance is too low.'\n        );\n        traderBalances[msg.sender][ticker] += matched;\n        traderBalances[msg.sender][DAI] -= matched * orders[i].price;\n        traderBalances[orders[i].trader][ticker] -= matched;\n        traderBalances[orders[i].trader][DAI] += matched * orders[i].price;\n      }\n      nextTradeId++;\n      i++;\n    }\n  }\n\n  modifier tokenExists(bytes32 ticker) {\n    require(\n      tokens[ticker].tokenAddress != address(0),\n      'This token does not exist.'\n    );\n    _;\n  }\n\n  modifier tokenIsNotDai(bytes32 ticker) {\n    require(ticker != DAI, 'Cannot trade DAI');\n    _;\n  }\n\n  modifier onlyAdmin() {\n    require(msg.sender == admin, 'only admin.');\n    _;\n  }\n}\n",
  "sourcePath": "/Users/ryn/eatTheBlocksPro/6FigureBlockchainDeveloper/dex/contracts/Dex.sol",
  "compiler": {
    "name": "solc",
    "version": "0.6.3+commit.8dda9521.Emscripten.clang"
  },
  "schemaVersion": "3.3.2",
  "updatedAt": "2021-01-14T14:38:38.344Z",
  "networkType": "ethereum",
  "devdoc": {
    "methods": {}
  },
  "userdoc": {
    "methods": {}
  }
}