{
  "contractName": "Dex",
  "abi": [
    {
      "inputs": [],
      "stateMutability": "nonpayable",
      "type": "constructor"
    },
    {
      "anonymous": false,
      "inputs": [
        {
          "indexed": false,
          "internalType": "uint256",
          "name": "tradeId",
          "type": "uint256"
        },
        {
          "indexed": false,
          "internalType": "uint256",
          "name": "orderId",
          "type": "uint256"
        },
        {
          "indexed": true,
          "internalType": "bytes32",
          "name": "ticker",
          "type": "bytes32"
        },
        {
          "indexed": true,
          "internalType": "address",
          "name": "trader1",
          "type": "address"
        },
        {
          "indexed": true,
          "internalType": "address",
          "name": "trader2",
          "type": "address"
        },
        {
          "indexed": false,
          "internalType": "uint256",
          "name": "amount",
          "type": "uint256"
        },
        {
          "indexed": false,
          "internalType": "uint256",
          "name": "price",
          "type": "uint256"
        },
        {
          "indexed": false,
          "internalType": "uint256",
          "name": "date",
          "type": "uint256"
        }
      ],
      "name": "NewTrade",
      "type": "event"
    },
    {
      "inputs": [],
      "name": "admin",
      "outputs": [
        {
          "internalType": "address",
          "name": "",
          "type": "address"
        }
      ],
      "stateMutability": "view",
      "type": "function"
    },
    {
      "inputs": [],
      "name": "nextOrderId",
      "outputs": [
        {
          "internalType": "uint256",
          "name": "",
          "type": "uint256"
        }
      ],
      "stateMutability": "view",
      "type": "function"
    },
    {
      "inputs": [],
      "name": "nextTradeId",
      "outputs": [
        {
          "internalType": "uint256",
          "name": "",
          "type": "uint256"
        }
      ],
      "stateMutability": "view",
      "type": "function"
    },
    {
      "inputs": [
        {
          "internalType": "bytes32",
          "name": "",
          "type": "bytes32"
        },
        {
          "internalType": "uint256",
          "name": "",
          "type": "uint256"
        },
        {
          "internalType": "uint256",
          "name": "",
          "type": "uint256"
        }
      ],
      "name": "orderBook",
      "outputs": [
        {
          "internalType": "uint256",
          "name": "id",
          "type": "uint256"
        },
        {
          "internalType": "address",
          "name": "trader",
          "type": "address"
        },
        {
          "internalType": "enum Dex.Side",
          "name": "side",
          "type": "uint8"
        },
        {
          "internalType": "bytes32",
          "name": "ticker",
          "type": "bytes32"
        },
        {
          "internalType": "uint256",
          "name": "amount",
          "type": "uint256"
        },
        {
          "internalType": "uint256",
          "name": "filled",
          "type": "uint256"
        },
        {
          "internalType": "uint256",
          "name": "price",
          "type": "uint256"
        },
        {
          "internalType": "uint256",
          "name": "date",
          "type": "uint256"
        }
      ],
      "stateMutability": "view",
      "type": "function"
    },
    {
      "inputs": [
        {
          "internalType": "uint256",
          "name": "",
          "type": "uint256"
        }
      ],
      "name": "tokenList",
      "outputs": [
        {
          "internalType": "bytes32",
          "name": "",
          "type": "bytes32"
        }
      ],
      "stateMutability": "view",
      "type": "function"
    },
    {
      "inputs": [
        {
          "internalType": "bytes32",
          "name": "",
          "type": "bytes32"
        }
      ],
      "name": "tokens",
      "outputs": [
        {
          "internalType": "bytes32",
          "name": "ticker",
          "type": "bytes32"
        },
        {
          "internalType": "address",
          "name": "tokenAddress",
          "type": "address"
        }
      ],
      "stateMutability": "view",
      "type": "function"
    },
    {
      "inputs": [
        {
          "internalType": "address",
          "name": "",
          "type": "address"
        },
        {
          "internalType": "bytes32",
          "name": "",
          "type": "bytes32"
        }
      ],
      "name": "traderBalances",
      "outputs": [
        {
          "internalType": "uint256",
          "name": "",
          "type": "uint256"
        }
      ],
      "stateMutability": "view",
      "type": "function"
    },
    {
      "inputs": [
        {
          "internalType": "bytes32",
          "name": "ticker",
          "type": "bytes32"
        },
        {
          "internalType": "enum Dex.Side",
          "name": "side",
          "type": "uint8"
        }
      ],
      "name": "getOrders",
      "outputs": [
        {
          "components": [
            {
              "internalType": "uint256",
              "name": "id",
              "type": "uint256"
            },
            {
              "internalType": "address",
              "name": "trader",
              "type": "address"
            },
            {
              "internalType": "enum Dex.Side",
              "name": "side",
              "type": "uint8"
            },
            {
              "internalType": "bytes32",
              "name": "ticker",
              "type": "bytes32"
            },
            {
              "internalType": "uint256",
              "name": "amount",
              "type": "uint256"
            },
            {
              "internalType": "uint256",
              "name": "filled",
              "type": "uint256"
            },
            {
              "internalType": "uint256",
              "name": "price",
              "type": "uint256"
            },
            {
              "internalType": "uint256",
              "name": "date",
              "type": "uint256"
            }
          ],
          "internalType": "struct Dex.Order[]",
          "name": "",
          "type": "tuple[]"
        }
      ],
      "stateMutability": "view",
      "type": "function"
    },
    {
      "inputs": [],
      "name": "getTokens",
      "outputs": [
        {
          "components": [
            {
              "internalType": "bytes32",
              "name": "ticker",
              "type": "bytes32"
            },
            {
              "internalType": "address",
              "name": "tokenAddress",
              "type": "address"
            }
          ],
          "internalType": "struct Dex.Token[]",
          "name": "",
          "type": "tuple[]"
        }
      ],
      "stateMutability": "view",
      "type": "function"
    },
    {
      "inputs": [
        {
          "internalType": "bytes32",
          "name": "ticker",
          "type": "bytes32"
        },
        {
          "internalType": "address",
          "name": "tokenAddress",
          "type": "address"
        }
      ],
      "name": "addToken",
      "outputs": [],
      "stateMutability": "nonpayable",
      "type": "function"
    },
    {
      "inputs": [
        {
          "internalType": "uint256",
          "name": "amount",
          "type": "uint256"
        },
        {
          "internalType": "bytes32",
          "name": "ticker",
          "type": "bytes32"
        }
      ],
      "name": "deposit",
      "outputs": [],
      "stateMutability": "nonpayable",
      "type": "function"
    },
    {
      "inputs": [
        {
          "internalType": "uint256",
          "name": "amount",
          "type": "uint256"
        },
        {
          "internalType": "bytes32",
          "name": "ticker",
          "type": "bytes32"
        }
      ],
      "name": "withdraw",
      "outputs": [],
      "stateMutability": "nonpayable",
      "type": "function"
    },
    {
      "inputs": [
        {
          "internalType": "bytes32",
          "name": "ticker",
          "type": "bytes32"
        },
        {
          "internalType": "uint256",
          "name": "amount",
          "type": "uint256"
        },
        {
          "internalType": "uint256",
          "name": "price",
          "type": "uint256"
        },
        {
          "internalType": "enum Dex.Side",
          "name": "side",
          "type": "uint8"
        }
      ],
      "name": "createLimitOrder",
      "outputs": [],
      "stateMutability": "nonpayable",
      "type": "function"
    },
    {
      "inputs": [
        {
          "internalType": "bytes32",
          "name": "ticker",
          "type": "bytes32"
        },
        {
          "internalType": "uint256",
          "name": "amount",
          "type": "uint256"
        },
        {
          "internalType": "enum Dex.Side",
          "name": "side",
          "type": "uint8"
        }
      ],
      "name": "createMarketOrder",
      "outputs": [],
      "stateMutability": "nonpayable",
      "type": "function"
    }
  ],
  "bytecode": "0x608060405234801561001057600080fd5b5033600460006101000a81548173ffffffffffffffffffffffffffffffffffffffff021916908373ffffffffffffffffffffffffffffffffffffffff16021790555061346d806100616000396000f3fe608060405234801561001057600080fd5b50600436106100ea5760003560e01c80639776aacf1161008c578063aa6ca80811610066578063aa6ca80814610277578063c9630cb014610295578063d9c0c950146102b1578063f851a440146102cd576100ea565b80639776aacf1461020f5780639ead72221461022b578063a8d2021a1461025b576100ea565b806372ce957e116100c857806372ce957e146101745780637f2c6246146101a4578063813ad083146101c0578063904194a3146101de576100ea565b80630bb431b6146100ef5780632a58b3301461012657806346e9658b14610144575b600080fd5b61010960048036036101049190810190612973565b6102eb565b60405161011d98979695949392919061316e565b60405180910390f35b61012e610387565b60405161013b9190613153565b60405180910390f35b61015e600480360361015991908101906128e8565b61038d565b60405161016b9190612fa9565b60405180910390f35b61018e6004803603610189919081019061281e565b6104dc565b60405161019b9190613153565b60405180910390f35b6101be60048036036101b99190810190612924565b610501565b005b6101c86115ca565b6040516101d59190613153565b60405180910390f35b6101f860048036036101f39190810190612883565b6115d0565b604051610206929190613008565b60405180910390f35b610229600480360361022491908101906128ac565b611614565b005b61024560048036036102409190810190612a25565b611762565b6040516102529190612fed565b60405180910390f35b61027560048036036102709190810190612a4e565b611783565b005b61027f611a3b565b60405161028c9190612fcb565b60405180910390f35b6102af60048036036102aa9190810190612a4e565b611b62565b005b6102cb60048036036102c691908101906129c2565b611d89565b005b6102d5612589565b6040516102e29190612f2e565b60405180910390f35b6003602052826000526040600020602052816000526040600020818154811061031057fe5b906000526020600020906007020160009250925050508060000154908060010160009054906101000a900473ffffffffffffffffffffffffffffffffffffffff16908060010160149054906101000a900460ff16908060020154908060030154908060040154908060050154908060060154905088565b60055481565b60606003600084815260200190815260200160002060008360018111156103b057fe5b8152602001908152602001600020805480602002602001604051908101604052809291908181526020016000905b828210156104d0578382906000526020600020906007020160405180610100016040529081600082015481526020016001820160009054906101000a900473ffffffffffffffffffffffffffffffffffffffff1673ffffffffffffffffffffffffffffffffffffffff1673ffffffffffffffffffffffffffffffffffffffff1681526020016001820160149054906101000a900460ff16600181111561048057fe5b600181111561048b57fe5b815260200160028201548152602001600382015481526020016004820154815260200160058201548152602001600682015481525050815260200190600101906103de565b50505050905092915050565b6002602052816000526040600020602052806000526040600020600091509150505481565b82600073ffffffffffffffffffffffffffffffffffffffff1660008083815260200190815260200160002060010160009054906101000a900473ffffffffffffffffffffffffffffffffffffffff1673ffffffffffffffffffffffffffffffffffffffff1614156105a7576040517f08c379a000000000000000000000000000000000000000000000000000000000815260040161059e90613053565b60405180910390fd5b837f444149000000000000000000000000000000000000000000000000000000000081141561060b576040517f08c379a000000000000000000000000000000000000000000000000000000000815260040161060290613133565b60405180910390fd5b60018081111561061757fe5b83600181111561062357fe5b14156106bd5783600260003373ffffffffffffffffffffffffffffffffffffffff1673ffffffffffffffffffffffffffffffffffffffff16815260200190815260200160002060008781526020019081526020016000205410156106bc576040517f08c379a00000000000000000000000000000000000000000000000000000000081526004016106b390613113565b60405180910390fd5b5b60006003600087815260200190815260200160002060008060018111156106e057fe5b8660018111156106ec57fe5b146106f85760006106fb565b60015b600181111561070657fe5b815260200190815260200160002090506000808690505b8280549050821080156107305750600081115b1561138b57600061078484848154811061074657fe5b90600052602060002090600702016004015485858154811061076457fe5b9060005260206000209060070201600301546125af90919063ffffffff16565b905060008183116107955782610797565b815b90506107ac81846125af90919063ffffffff16565b92506107de818686815481106107be57fe5b9060005260206000209060070201600401546125f990919063ffffffff16565b8585815481106107ea57fe5b9060005260206000209060070201600401819055503373ffffffffffffffffffffffffffffffffffffffff1685858154811061082257fe5b906000526020600020906007020160010160009054906101000a900473ffffffffffffffffffffffffffffffffffffffff1673ffffffffffffffffffffffffffffffffffffffff168b7fdb0c486e680ba8026643e6a85f8d157b5e7bcd4b32b54d564542570a9eb2041660065489898154811061089b57fe5b906000526020600020906007020160000154868b8b815481106108ba57fe5b906000526020600020906007020160050154426040516108de9594939291906131ec565b60405180910390a46001808111156108f257fe5b8860018111156108fe57fe5b1415610db35761096781600260003373ffffffffffffffffffffffffffffffffffffffff1673ffffffffffffffffffffffffffffffffffffffff16815260200190815260200160002060008d8152602001908152602001600020546125af90919063ffffffff16565b600260003373ffffffffffffffffffffffffffffffffffffffff1673ffffffffffffffffffffffffffffffffffffffff16815260200190815260200160002060008c815260200190815260200160002081905550610a6d6109ee8686815481106109cd57fe5b9060005260206000209060070201600501548361264e90919063ffffffff16565b600260003373ffffffffffffffffffffffffffffffffffffffff1673ffffffffffffffffffffffffffffffffffffffff16815260200190815260200160002060007f44414900000000000000000000000000000000000000000000000000000000008152602001908152602001600020546125f990919063ffffffff16565b600260003373ffffffffffffffffffffffffffffffffffffffff1673ffffffffffffffffffffffffffffffffffffffff16815260200190815260200160002060007f4441490000000000000000000000000000000000000000000000000000000000815260200190815260200160002081905550610b818160026000888881548110610af557fe5b906000526020600020906007020160010160009054906101000a900473ffffffffffffffffffffffffffffffffffffffff1673ffffffffffffffffffffffffffffffffffffffff1673ffffffffffffffffffffffffffffffffffffffff16815260200190815260200160002060008d8152602001908152602001600020546125f990919063ffffffff16565b60026000878781548110610b9157fe5b906000526020600020906007020160010160009054906101000a900473ffffffffffffffffffffffffffffffffffffffff1673ffffffffffffffffffffffffffffffffffffffff1673ffffffffffffffffffffffffffffffffffffffff16815260200190815260200160002060008c815260200190815260200160002081905550610d01610c45868681548110610c2457fe5b9060005260206000209060070201600501548361264e90919063ffffffff16565b60026000888881548110610c5557fe5b906000526020600020906007020160010160009054906101000a900473ffffffffffffffffffffffffffffffffffffffff1673ffffffffffffffffffffffffffffffffffffffff1673ffffffffffffffffffffffffffffffffffffffff16815260200190815260200160002060007f44414900000000000000000000000000000000000000000000000000000000008152602001908152602001600020546125af90919063ffffffff16565b60026000878781548110610d1157fe5b906000526020600020906007020160010160009054906101000a900473ffffffffffffffffffffffffffffffffffffffff1673ffffffffffffffffffffffffffffffffffffffff1673ffffffffffffffffffffffffffffffffffffffff16815260200190815260200160002060007f44414900000000000000000000000000000000000000000000000000000000008152602001908152602001600020819055505b60006001811115610dc057fe5b886001811115610dcc57fe5b141561135357848481548110610dde57fe5b9060005260206000209060070201600501548102600260003373ffffffffffffffffffffffffffffffffffffffff1673ffffffffffffffffffffffffffffffffffffffff16815260200190815260200160002060007f44414900000000000000000000000000000000000000000000000000000000008152602001908152602001600020541015610ea4576040517f08c379a0000000000000000000000000000000000000000000000000000000008152600401610e9b90613093565b60405180910390fd5b610f0781600260003373ffffffffffffffffffffffffffffffffffffffff1673ffffffffffffffffffffffffffffffffffffffff16815260200190815260200160002060008d8152602001908152602001600020546125f990919063ffffffff16565b600260003373ffffffffffffffffffffffffffffffffffffffff1673ffffffffffffffffffffffffffffffffffffffff16815260200190815260200160002060008c81526020019081526020016000208190555061100d610f8e868681548110610f6d57fe5b9060005260206000209060070201600501548361264e90919063ffffffff16565b600260003373ffffffffffffffffffffffffffffffffffffffff1673ffffffffffffffffffffffffffffffffffffffff16815260200190815260200160002060007f44414900000000000000000000000000000000000000000000000000000000008152602001908152602001600020546125af90919063ffffffff16565b600260003373ffffffffffffffffffffffffffffffffffffffff1673ffffffffffffffffffffffffffffffffffffffff16815260200190815260200160002060007f4441490000000000000000000000000000000000000000000000000000000000815260200190815260200160002081905550611121816002600088888154811061109557fe5b906000526020600020906007020160010160009054906101000a900473ffffffffffffffffffffffffffffffffffffffff1673ffffffffffffffffffffffffffffffffffffffff1673ffffffffffffffffffffffffffffffffffffffff16815260200190815260200160002060008d8152602001908152602001600020546125af90919063ffffffff16565b6002600087878154811061113157fe5b906000526020600020906007020160010160009054906101000a900473ffffffffffffffffffffffffffffffffffffffff1673ffffffffffffffffffffffffffffffffffffffff1673ffffffffffffffffffffffffffffffffffffffff16815260200190815260200160002060008c8152602001908152602001600020819055506112a16111e58686815481106111c457fe5b9060005260206000209060070201600501548361264e90919063ffffffff16565b600260008888815481106111f557fe5b906000526020600020906007020160010160009054906101000a900473ffffffffffffffffffffffffffffffffffffffff1673ffffffffffffffffffffffffffffffffffffffff1673ffffffffffffffffffffffffffffffffffffffff16815260200190815260200160002060007f44414900000000000000000000000000000000000000000000000000000000008152602001908152602001600020546125f990919063ffffffff16565b600260008787815481106112b157fe5b906000526020600020906007020160010160009054906101000a900473ffffffffffffffffffffffffffffffffffffffff1673ffffffffffffffffffffffffffffffffffffffff1673ffffffffffffffffffffffffffffffffffffffff16815260200190815260200160002060007f44414900000000000000000000000000000000000000000000000000000000008152602001908152602001600020819055505b61136960016006546125f990919063ffffffff16565b60068190555061138284856125f990919063ffffffff16565b9350505061071d565b600091505b8280549050821080156113dc57508282815481106113aa57fe5b9060005260206000209060070201600301548383815481106113c857fe5b906000526020600020906007020160040154145b156115c05760008290505b60018480549050038110156115165783600182018154811061140557fe5b906000526020600020906007020184828154811061141f57fe5b9060005260206000209060070201600082015481600001556001820160009054906101000a900473ffffffffffffffffffffffffffffffffffffffff168160010160006101000a81548173ffffffffffffffffffffffffffffffffffffffff021916908373ffffffffffffffffffffffffffffffffffffffff1602179055506001820160149054906101000a900460ff168160010160146101000a81548160ff021916908360018111156114cf57fe5b0217905550600282015481600201556003820154816003015560048201548160040155600582015481600501556006820154816006015590505080806001019150506113e7565b508280548061152157fe5b60019003818190600052602060002090600702016000808201600090556001820160006101000a81549073ffffffffffffffffffffffffffffffffffffffff02191690556001820160146101000a81549060ff021916905560028201600090556003820160009055600482016000905560058201600090556006820160009055505090556115b96001836125f990919063ffffffff16565b9150611390565b5050505050505050565b60065481565b60006020528060005260406000206000915090508060000154908060010160009054906101000a900473ffffffffffffffffffffffffffffffffffffffff16905082565b600460009054906101000a900473ffffffffffffffffffffffffffffffffffffffff1673ffffffffffffffffffffffffffffffffffffffff163373ffffffffffffffffffffffffffffffffffffffff16146116a4576040517f08c379a000000000000000000000000000000000000000000000000000000000815260040161169b90613073565b60405180910390fd5b60405180604001604052808381526020018273ffffffffffffffffffffffffffffffffffffffff168152506000808481526020019081526020016000206000820151816000015560208201518160010160006101000a81548173ffffffffffffffffffffffffffffffffffffffff021916908373ffffffffffffffffffffffffffffffffffffffff16021790555090505060018290806001815401808255809150506001900390600052602060002001600090919091909150555050565b6001818154811061176f57fe5b906000526020600020016000915090505481565b80600073ffffffffffffffffffffffffffffffffffffffff1660008083815260200190815260200160002060010160009054906101000a900473ffffffffffffffffffffffffffffffffffffffff1673ffffffffffffffffffffffffffffffffffffffff161415611829576040517f08c379a000000000000000000000000000000000000000000000000000000000815260040161182090613053565b60405180910390fd5b82600260003373ffffffffffffffffffffffffffffffffffffffff1673ffffffffffffffffffffffffffffffffffffffff16815260200190815260200160002060008481526020019081526020016000205410156118bc576040517f08c379a00000000000000000000000000000000000000000000000000000000081526004016118b3906130d3565b60405180910390fd5b61191f83600260003373ffffffffffffffffffffffffffffffffffffffff1673ffffffffffffffffffffffffffffffffffffffff1681526020019081526020016000206000858152602001908152602001600020546125af90919063ffffffff16565b600260003373ffffffffffffffffffffffffffffffffffffffff1673ffffffffffffffffffffffffffffffffffffffff16815260200190815260200160002060008481526020019081526020016000208190555060008083815260200190815260200160002060010160009054906101000a900473ffffffffffffffffffffffffffffffffffffffff1673ffffffffffffffffffffffffffffffffffffffff1663a9059cbb33856040518363ffffffff1660e01b81526004016119e3929190612f80565b602060405180830381600087803b1580156119fd57600080fd5b505af1158015611a11573d6000803e3d6000fd5b505050506040513d601f19601f82011682018060405250611a35919081019061285a565b50505050565b606080600180549050604051908082528060200260200182016040528015611a7d57816020015b611a6a612719565b815260200190600190039081611a625790505b50905060008090505b600180549050811015611b5a57604051806040016040528060008060018581548110611aae57fe5b9060005260206000200154815260200190815260200160002060000154815260200160008060018581548110611ae057fe5b9060005260206000200154815260200190815260200160002060010160009054906101000a900473ffffffffffffffffffffffffffffffffffffffff1673ffffffffffffffffffffffffffffffffffffffff16815250828281518110611b4257fe5b60200260200101819052508080600101915050611a86565b508091505090565b80600073ffffffffffffffffffffffffffffffffffffffff1660008083815260200190815260200160002060010160009054906101000a900473ffffffffffffffffffffffffffffffffffffffff1673ffffffffffffffffffffffffffffffffffffffff161415611c08576040517f08c379a0000000000000000000000000000000000000000000000000000000008152600401611bff90613053565b60405180910390fd5b60008083815260200190815260200160002060010160009054906101000a900473ffffffffffffffffffffffffffffffffffffffff1673ffffffffffffffffffffffffffffffffffffffff166323b872dd3330866040518463ffffffff1660e01b8152600401611c7a93929190612f49565b602060405180830381600087803b158015611c9457600080fd5b505af1158015611ca8573d6000803e3d6000fd5b505050506040513d601f19601f82011682018060405250611ccc919081019061285a565b50611d3083600260003373ffffffffffffffffffffffffffffffffffffffff1673ffffffffffffffffffffffffffffffffffffffff1681526020019081526020016000206000858152602001908152602001600020546125f990919063ffffffff16565b600260003373ffffffffffffffffffffffffffffffffffffffff1673ffffffffffffffffffffffffffffffffffffffff168152602001908152602001600020600084815260200190815260200160002081905550505050565b83600073ffffffffffffffffffffffffffffffffffffffff1660008083815260200190815260200160002060010160009054906101000a900473ffffffffffffffffffffffffffffffffffffffff1673ffffffffffffffffffffffffffffffffffffffff161415611e2f576040517f08c379a0000000000000000000000000000000000000000000000000000000008152600401611e2690613053565b60405180910390fd5b847f4441490000000000000000000000000000000000000000000000000000000000811415611e93576040517f08c379a0000000000000000000000000000000000000000000000000000000008152600401611e8a90613133565b60405180910390fd5b600180811115611e9f57fe5b836001811115611eab57fe5b1415611f495784600260003373ffffffffffffffffffffffffffffffffffffffff1673ffffffffffffffffffffffffffffffffffffffff1681526020019081526020016000206000888152602001908152602001600020541015611f44576040517f08c379a0000000000000000000000000000000000000000000000000000000008152600401611f3b90613113565b60405180910390fd5b61200f565b611f5c848661264e90919063ffffffff16565b600260003373ffffffffffffffffffffffffffffffffffffffff1673ffffffffffffffffffffffffffffffffffffffff16815260200190815260200160002060007f4441490000000000000000000000000000000000000000000000000000000000815260200190815260200160002054101561200e576040517f08c379a000000000000000000000000000000000000000000000000000000000815260040161200590613093565b60405180910390fd5b5b600060036000888152602001908152602001600020600085600181111561203257fe5b815260200190815260200160002090508060405180610100016040528060055481526020013373ffffffffffffffffffffffffffffffffffffffff16815260200186600181111561207f57fe5b8152602001898152602001888152602001600081526020018781526020014281525090806001815401808255809150506001900390600052602060002090600702016000909190919091506000820151816000015560208201518160010160006101000a81548173ffffffffffffffffffffffffffffffffffffffff021916908373ffffffffffffffffffffffffffffffffffffffff16021790555060408201518160010160146101000a81548160ff0219169083600181111561213f57fe5b0217905550606082015181600201556080820151816003015560a0820151816004015560c0820151816005015560e08201518160060155505060008082805490501161218c576000612195565b60018280549050035b90505b600081111561256357600060018111156121ae57fe5b8560018111156121ba57fe5b14801561220357508181815481106121ce57fe5b9060005260206000209060070201600501548260018303815481106121ef57fe5b906000526020600020906007020160050154115b1561220d57612563565b60018081111561221957fe5b85600181111561222557fe5b14801561226e575081818154811061223957fe5b90600052602060002090600702016005015482600183038154811061225a57fe5b906000526020600020906007020160050154105b1561227857612563565b61228061274c565b82600183038154811061228f57fe5b906000526020600020906007020160405180610100016040529081600082015481526020016001820160009054906101000a900473ffffffffffffffffffffffffffffffffffffffff1673ffffffffffffffffffffffffffffffffffffffff1673ffffffffffffffffffffffffffffffffffffffff1681526020016001820160149054906101000a900460ff16600181111561232757fe5b600181111561233257fe5b815260200160028201548152602001600382015481526020016004820154815260200160058201548152602001600682015481525050905082828154811061237657fe5b906000526020600020906007020183600184038154811061239357fe5b9060005260206000209060070201600082015481600001556001820160009054906101000a900473ffffffffffffffffffffffffffffffffffffffff168160010160006101000a81548173ffffffffffffffffffffffffffffffffffffffff021916908373ffffffffffffffffffffffffffffffffffffffff1602179055506001820160149054906101000a900460ff168160010160146101000a81548160ff0219169083600181111561244357fe5b021790555060028201548160020155600382015481600301556004820154816004015560058201548160050155600682015481600601559050508083838154811061248a57fe5b90600052602060002090600702016000820151816000015560208201518160010160006101000a81548173ffffffffffffffffffffffffffffffffffffffff021916908373ffffffffffffffffffffffffffffffffffffffff16021790555060408201518160010160146101000a81548160ff0219169083600181111561250d57fe5b0217905550606082015181600201556080820151816003015560a0820151816004015560c0820151816005015560e0820151816006015590505061255b6001836125af90919063ffffffff16565b915050612198565b61257960016005546125f990919063ffffffff16565b6005819055505050505050505050565b600460009054906101000a900473ffffffffffffffffffffffffffffffffffffffff1681565b60006125f183836040518060400160405280601e81526020017f536166654d6174683a207375627472616374696f6e206f766572666c6f7700008152506126be565b905092915050565b600080828401905083811015612644576040517f08c379a000000000000000000000000000000000000000000000000000000000815260040161263b906130b3565b60405180910390fd5b8091505092915050565b60008083141561266157600090506126b8565b600082840290508284828161267257fe5b04146126b3576040517f08c379a00000000000000000000000000000000000000000000000000000000081526004016126aa906130f3565b60405180910390fd5b809150505b92915050565b6000838311158290612706576040517f08c379a00000000000000000000000000000000000000000000000000000000081526004016126fd9190613031565b60405180910390fd5b5060008385039050809150509392505050565b604051806040016040528060008019168152602001600073ffffffffffffffffffffffffffffffffffffffff1681525090565b60405180610100016040528060008152602001600073ffffffffffffffffffffffffffffffffffffffff1681526020016000600181111561278957fe5b815260200160008019168152602001600081526020016000815260200160008152602001600081525090565b6000813590506127c4816133cb565b92915050565b6000815190506127d9816133e2565b92915050565b6000813590506127ee816133f9565b92915050565b60008135905061280381613410565b92915050565b60008135905061281881613420565b92915050565b6000806040838503121561283157600080fd5b600061283f858286016127b5565b9250506020612850858286016127df565b9150509250929050565b60006020828403121561286c57600080fd5b600061287a848285016127ca565b91505092915050565b60006020828403121561289557600080fd5b60006128a3848285016127df565b91505092915050565b600080604083850312156128bf57600080fd5b60006128cd858286016127df565b92505060206128de858286016127b5565b9150509250929050565b600080604083850312156128fb57600080fd5b6000612909858286016127df565b925050602061291a858286016127f4565b9150509250929050565b60008060006060848603121561293957600080fd5b6000612947868287016127df565b935050602061295886828701612809565b9250506040612969868287016127f4565b9150509250925092565b60008060006060848603121561298857600080fd5b6000612996868287016127df565b93505060206129a786828701612809565b92505060406129b886828701612809565b9150509250925092565b600080600080608085870312156129d857600080fd5b60006129e6878288016127df565b94505060206129f787828801612809565b9350506040612a0887828801612809565b9250506060612a19878288016127f4565b91505092959194509250565b600060208284031215612a3757600080fd5b6000612a4584828501612809565b91505092915050565b60008060408385031215612a6157600080fd5b6000612a6f85828601612809565b9250506020612a80858286016127df565b9150509250929050565b6000612a968383612e3f565b6101008301905092915050565b6000612aaf8383612ee1565b60408301905092915050565b612ac481613332565b82525050565b612ad3816132cd565b82525050565b612ae2816132cd565b82525050565b6000612af38261325f565b612afd818561329a565b9350612b088361323f565b8060005b83811015612b39578151612b208882612a8a565b9750612b2b83613280565b925050600181019050612b0c565b5085935050505092915050565b6000612b518261326a565b612b5b81856132ab565b9350612b668361324f565b8060005b83811015612b97578151612b7e8882612aa3565b9750612b898361328d565b925050600181019050612b6a565b5085935050505092915050565b612bad816132eb565b82525050565b612bbc816132eb565b82525050565b612bcb81613344565b82525050565b612bda81613344565b82525050565b6000612beb82613275565b612bf581856132bc565b9350612c0581856020860161337a565b612c0e816133ad565b840191505092915050565b6000612c26601a836132bc565b91507f5468697320746f6b656e20646f6573206e6f742065786973742e0000000000006000830152602082019050919050565b6000612c66600b836132bc565b91507f6f6e6c792061646d696e2e0000000000000000000000000000000000000000006000830152602082019050919050565b6000612ca66017836132bc565b91507f4441492062616c616e636520697320746f6f206c6f772e0000000000000000006000830152602082019050919050565b6000612ce6601b836132bc565b91507f536166654d6174683a206164646974696f6e206f766572666c6f7700000000006000830152602082019050919050565b6000612d266010836132bc565b91507f42616c616e636520746f6f206c6f772e000000000000000000000000000000006000830152602082019050919050565b6000612d666021836132bc565b91507f536166654d6174683a206d756c7469706c69636174696f6e206f766572666c6f60008301527f77000000000000000000000000000000000000000000000000000000000000006020830152604082019050919050565b6000612dcc6019836132bc565b91507f546f6b656e2062616c616e636520697320746f6f206c6f772e000000000000006000830152602082019050919050565b6000612e0c6010836132bc565b91507f43616e6e6f7420747261646520444149000000000000000000000000000000006000830152602082019050919050565b61010082016000820151612e566000850182612f10565b506020820151612e696020850182612aca565b506040820151612e7c6040850182612bc2565b506060820151612e8f6060850182612ba4565b506080820151612ea26080850182612f10565b5060a0820151612eb560a0850182612f10565b5060c0820151612ec860c0850182612f10565b5060e0820151612edb60e0850182612f10565b50505050565b604082016000820151612ef76000850182612ba4565b506020820151612f0a6020850182612aca565b50505050565b612f1981613328565b82525050565b612f2881613328565b82525050565b6000602082019050612f436000830184612ad9565b92915050565b6000606082019050612f5e6000830186612abb565b612f6b6020830185612ad9565b612f786040830184612f1f565b949350505050565b6000604082019050612f956000830185612abb565b612fa26020830184612f1f565b9392505050565b60006020820190508181036000830152612fc38184612ae8565b905092915050565b60006020820190508181036000830152612fe58184612b46565b905092915050565b60006020820190506130026000830184612bb3565b92915050565b600060408201905061301d6000830185612bb3565b61302a6020830184612ad9565b9392505050565b6000602082019050818103600083015261304b8184612be0565b905092915050565b6000602082019050818103600083015261306c81612c19565b9050919050565b6000602082019050818103600083015261308c81612c59565b9050919050565b600060208201905081810360008301526130ac81612c99565b9050919050565b600060208201905081810360008301526130cc81612cd9565b9050919050565b600060208201905081810360008301526130ec81612d19565b9050919050565b6000602082019050818103600083015261310c81612d59565b9050919050565b6000602082019050818103600083015261312c81612dbf565b9050919050565b6000602082019050818103600083015261314c81612dff565b9050919050565b60006020820190506131686000830184612f1f565b92915050565b600061010082019050613184600083018b612f1f565b613191602083018a612ad9565b61319e6040830189612bd1565b6131ab6060830188612bb3565b6131b86080830187612f1f565b6131c560a0830186612f1f565b6131d260c0830185612f1f565b6131df60e0830184612f1f565b9998505050505050505050565b600060a0820190506132016000830188612f1f565b61320e6020830187612f1f565b61321b6040830186612f1f565b6132286060830185612f1f565b6132356080830184612f1f565b9695505050505050565b6000819050602082019050919050565b6000819050602082019050919050565b600081519050919050565b600081519050919050565b600081519050919050565b6000602082019050919050565b6000602082019050919050565b600082825260208201905092915050565b600082825260208201905092915050565b600082825260208201905092915050565b60006132d882613308565b9050919050565b60008115159050919050565b6000819050919050565b6000819050613303826133be565b919050565b600073ffffffffffffffffffffffffffffffffffffffff82169050919050565b6000819050919050565b600061333d82613356565b9050919050565b600061334f826132f5565b9050919050565b600061336182613368565b9050919050565b600061337382613308565b9050919050565b60005b8381101561339857808201518184015260208101905061337d565b838111156133a7576000848401525b50505050565b6000601f19601f8301169050919050565b600281106133c857fe5b50565b6133d4816132cd565b81146133df57600080fd5b50565b6133eb816132df565b81146133f657600080fd5b50565b613402816132eb565b811461340d57600080fd5b50565b6002811061341d57600080fd5b50565b61342981613328565b811461343457600080fd5b5056fea264697066735822122074f8e172bfe3d0647c9c1b814b68c2abf662f04cf8659c7cd1b94552f3ddb20d64736f6c63430006030033",
  "source": "pragma solidity ^0.6.3;\npragma experimental ABIEncoderV2;\n\nimport '@openzeppelin/contracts/token/ERC20/IERC20.sol';\nimport '@openzeppelin/contracts/math/SafeMath.sol';\n\ncontract Dex {\n\n  // Used to deal with large numbers\n  using SafeMath for uint;\n\n  enum Side { BUY, SELL }\n\n  struct Token {\n    // bytes32 at most 32 characters long and bytes32 is easier to manipulate than strings\n    bytes32 ticker;\n    address tokenAddress;\n  }\n\n  struct Order {\n    uint id;\n    address trader;\n    Side side;\n    bytes32 ticker;\n    uint amount;\n    uint filled;\n    uint price;\n    uint date;\n  }\n\n  mapping(bytes32 => Token) public tokens;\n  bytes32[] public tokenList;\n  mapping(address => mapping(bytes32 => uint)) public traderBalances;\n  // for orderBook, uint will represent the enum SIDE: 0 = BUY or 1 = SELL\n  mapping(bytes32 => mapping(uint => Order[])) public orderBook;\n  address public admin;\n  // variable to keep track of what is the current order id\n  uint public nextOrderId;\n  uint public nextTradeId;\n  bytes32 constant DAI = bytes32('DAI');\n\n  event NewTrade(\n    uint tradeId,\n    uint orderId,\n    // indexed: filter the events on the front end\n    bytes32 indexed ticker,\n    address indexed trader1,\n    address indexed trader2,\n    uint amount,\n    uint price,\n    uint date\n  );\n\n  constructor() public {\n    admin = msg.sender;\n  }\n\n  function getOrders(\n    bytes32 ticker,\n    Side side)\n    external\n    view\n    returns(Order[] memory) {\n      return orderBook[ticker][uint(side)];\n    }\n\n   function getTokens()\n     external\n     view\n     returns(Token[] memory) {\n     Token[] memory _tokens = new Token[](tokenList.length);\n     for (uint i = 0; i < tokenList.length; i++) {\n       _tokens[i] = Token(\n         tokens[tokenList[i]].ticker,\n         tokens[tokenList[i]].tokenAddress\n       );\n     }\n     return _tokens;\n   }\n\n  function addToken(\n    bytes32 ticker,\n    address tokenAddress)\n    onlyAdmin()\n    external {\n    tokens[ticker] = Token(ticker, tokenAddress);\n    tokenList.push(ticker);\n  }\n\n  function deposit(\n    uint amount,\n    bytes32 ticker)\n    tokenExists(ticker)\n    external {\n    IERC20(tokens[ticker].tokenAddress).transferFrom(\n      msg.sender, // sends from sender\n      address(this), // sends to this smart contract\n      amount // amount to be sent\n    );\n    traderBalances[msg.sender][ticker] = traderBalances[msg.sender][ticker].add(amount);\n  }\n\n  function withdraw(\n    uint amount,\n    bytes32 ticker)\n    tokenExists(ticker)\n    external {\n    require(\n      traderBalances[msg.sender][ticker] >= amount,\n      'Balance too low.'\n    );\n    traderBalances[msg.sender][ticker] = traderBalances[msg.sender][ticker].sub(amount);\n    IERC20(tokens[ticker].tokenAddress).transfer(\n      msg.sender, // recipient is the sender of this transaction\n      amount // amount to be withdrawn\n    );\n  }\n\n  function createLimitOrder(\n    bytes32 ticker,\n    uint amount,\n    uint price,\n    Side side)\n    tokenExists(ticker)\n    tokenIsNotDai(ticker)\n    external {\n    if(side == Side.SELL) {\n      require(\n        traderBalances[msg.sender][ticker] >= amount,\n        'Token balance is too low.'\n      );\n    } else {\n      require(\n        // mul = amount multiplied by price\n        traderBalances[msg.sender][DAI] >= amount.mul(price),\n        'DAI balance is too low.'\n      );\n    }\n    Order[] storage orders = orderBook[ticker][uint(side)]; // cast side enum into an integer\n    orders.push(Order(\n      nextOrderId,\n      msg.sender,\n      side,\n      ticker,\n      amount,\n      0,\n      price,\n      now\n    ));\n\n    // if orders.length is superior to 0 then i = orders.length - 0 : otherwise i = 0\n    uint i = orders.length > 0 ? orders.length - 1 : 0;\n    while(i > 0) {\n      if(side == Side.BUY && orders[i - 1].price > orders[i].price) {\n        break;\n      }\n      if(side == Side.SELL && orders[i - 1].price < orders[i].price) {\n        break;\n      }\n\n      // save previous order element in in memory\n      Order memory order = orders[i - 1];\n\n      // orders[i] == current element\n      // order == previous element\n\n      // swap current order element to previous index\n      orders[i - 1] = orders[i];\n\n      // swap previous order element to next index\n      orders[i] = order;\n\n      // decrement i\n      i = i.sub(1);\n    }\n    // increment nextOrderId\n    nextOrderId = nextOrderId.add(1);\n  }\n\n  function createMarketOrder(\n    bytes32 ticker,\n    uint amount,\n    Side side)\n    tokenExists(ticker)\n    tokenIsNotDai(ticker)\n    external {\n    if(side == Side.SELL) {\n      require(\n        traderBalances[msg.sender][ticker] >= amount,\n        'Token balance is too low.'\n      );\n    }\n    // if side == Side.BUY then we want the SELL orders otherwhise we want the BUY orders\n    // cast into integer so that we can access the correct key in the order book as an integer\n    Order[] storage orders = orderBook[ticker][uint (side == Side.BUY ? Side.SELL : Side.BUY)];\n    uint i;\n    uint remaining = amount;\n\n    while(i < orders.length && remaining > 0) {\n      uint available = orders[i].amount.sub(orders[i].filled);\n      uint matched = (remaining > available) ? available : remaining;\n      remaining = remaining.sub(matched);\n      orders[i].filled = orders[i].filled.add(matched);\n      emit NewTrade(\n        nextTradeId,\n        orders[i].id,\n        ticker,\n        orders[i].trader,\n        msg.sender,\n        matched,\n        orders[i].price,\n        now\n      );\n      if(side == Side.SELL) {\n        traderBalances[msg.sender][ticker] = traderBalances[msg.sender][ticker]\n          .sub(matched);\n        traderBalances[msg.sender][DAI] = traderBalances[msg.sender][DAI]\n          .add(matched.mul(orders[i].price));\n        traderBalances[orders[i].trader][ticker] = traderBalances[orders[i].trader][ticker]\n          .add(matched);\n        traderBalances[orders[i].trader][DAI] = traderBalances[orders[i].trader][DAI]\n          .sub(matched.mul(orders[i].price));\n      }\n      if(side == Side.BUY) {\n        require(\n          traderBalances[msg.sender][DAI] >= matched * orders[i].price,\n          'DAI balance is too low.'\n        );\n        traderBalances[msg.sender][ticker] = traderBalances[msg.sender][ticker]\n          .add(matched);\n        traderBalances[msg.sender][DAI] = traderBalances[msg.sender][DAI]\n          .sub(matched.mul(orders[i].price));\n        traderBalances[orders[i].trader][ticker] = traderBalances[orders[i].trader][ticker]\n          .sub(matched);\n        traderBalances[orders[i].trader][DAI] = traderBalances[orders[i].trader][DAI]\n          .add(matched.mul(orders[i].price));\n      }\n      nextTradeId = nextTradeId.add(1);\n      i = i.add(i);\n    }\n    // remove any orders that have been filled\n    i = 0;\n    while(i < orders.length && orders[i].filled == orders[i].amount) {\n      for(uint j = i; j < orders.length - 1; j++ ) {\n        orders[j] = orders[j + 1];\n      }\n      orders.pop();\n      i = i.add(1);\n    }\n  }\n\n  modifier tokenExists(bytes32 ticker) {\n    require(\n      tokens[ticker].tokenAddress != address(0),\n      'This token does not exist.'\n    );\n    _;\n  }\n\n  modifier tokenIsNotDai(bytes32 ticker) {\n    require(ticker != DAI, 'Cannot trade DAI');\n    _;\n  }\n\n  modifier onlyAdmin() {\n    require(msg.sender == admin, 'only admin.');\n    _;\n  }\n}\n",
  "sourcePath": "/Users/ryn/eatTheBlocksPro/6FigureBlockchainDeveloper/dex/contracts/Dex.sol",
  "compiler": {
    "name": "solc",
    "version": "0.6.3+commit.8dda9521.Emscripten.clang"
  },
  "schemaVersion": "3.3.2",
  "updatedAt": "2021-01-19T17:19:25.133Z",
  "devdoc": {
    "methods": {}
  },
  "userdoc": {
    "methods": {}
  }
}